:1000000014C01CC02DC019C018C017C016C015C020
:1000100014C013C012C011C010C00FC00EC00DC05C
:100020000CC00BC00AC009C008C011241FBECFE518
:10003000D1E0DEBFCDBF39D03BC0E2CF1F920F92DF
:100040000FB60F9211248F939F9398B382E0892764
:1000500088BB9F918F910F900FBE0F901F901895A6
:100060001F920F920FB60F9211248F939F9398B304
:1000700081E0892788BB9F918F910F900FBE0F90D1
:100080001F90189587B38F6387BB78948BB7806474
:100090008BBF85B7826085BF0895B89A8BB788609B
:1000A0008BBF80B5826080BD0895ECDFF6DFFFCFA7
:0400B000F894FFCFF2
:00000001FF
